:100000000C943D000C94C5040C94C5040C94C504D8
:100010000C94C5040C94C5040C94C5040C94C5043C
:100020000C94C5040C94C5040C94C5040C94C5042C
:100030000C94C5040C94C5040C94C5040C94C5041C
:100040000C94C5040C94C5040C94C5040C94C5040C
:100050000C94C5040C94C5040C94C5040C94C504FC
:100060000C94C5040C94C504010001198001190108
:100070001D000998011D011E800011241FBECFEF35
:10008000D8E0DEBFCDBFE8E6F0E040E017C0B591B4
:10009000A59135912591059107FD0CC0959185910C
:1000A000EF01F92FE82F05900D92A217B307D9F7AA
:1000B000FE0104C01D92A217B307E1F7E937F40768
:0E00C00031F70E949D000C948004F894FFCF4D
:1000CE00444F20414E203120003231313339363405
:1000DE00005769666920456E61626C65642900523D
:1000EE004649442041542053797374656D007377EB
:1000FE006970652D73756363657373005549443A72
:10010E002039302033452031442032362900737790
:10011E006970652D6661696C005549443A20393322
:0B012E002041412042362030462900CD
:10013A00CF93DF9300D000D0CDB7DEB70E949F04E3
:10014A000E94AE040E94A7040E9469042FEF89E668
:10015A0098E1215080409040E1F700C000000E94E1
:10016A0086030E94EF0360E084E00E940B0447E0EC
:10017A006EEC70E080E00E94CF0361E089E00E94AB
:10018A000B0447E067ED70E080E00E94CF0382E055
:10019A000E944C0480930001682F606282E00E94F2
:1001AA00260483E00E944C0480930001682F606853
:1001BA0083E00E9426042FEF83ED90E321508040D4
:1001CA009040E1F700C000000E94950460E082E0E0
:1001DA000E940B044CE06FED70E080E00E94CF03B8
:1001EA0061E081E00E940B044EE06DEE70E080E079
:1001FA000E94CF0381E490E09A83898382E490E0AD
:10020A009C838B8389E191E00E945E0380930301C2
:10021A00853021F481E080931D0105C0843019F4F2
:10022A0082E080931D0180911D01813061F50E9459
:10023A00950460E081E00E940B044DE06CEF70E0F1
:10024A0080E00E94CF0380E00E94750461E080E0B4
:10025A000E940B0440E16AE071E080E00E94CF0353
:10026A0061E0CE0101960E9439042FEF87EA91E6F8
:10027A00215080409040E1F700C000000E949504A0
:10028A0080E00E945D0480911D01823061F50E9428
:10029A00950460E083E00E940B044AE06CE171E09F
:1002AA0080E00E94CF0381E00E94750461E080E053
:1002BA000E940B0440E167E271E080E00E94CF03F4
:1002CA0061E0CE0103960E9439042FEF87EA91E696
:1002DA00215080409040E1F700C000000E94950440
:1002EA0081E00E945D0480911D018823C1F0109273
:1002FA001D011092020160E082E00E940B044CE0B2
:10030A006FED70E080E00E94CF0361E081E00E941F
:10031A000B044EE06DEE70E080E00E94CF032FEFF9
:10032A0080E792E0215080409040E1F700C0000051
:02033A0069CF89
:10033C004F925F926F927F928F929F92AF92BF92E9
:10034C00CF92DF92EF92FF920F931F93CF93DF9395
:10035C00D82F7B01C42F59018C3029F08E3061F0DD
:10036C00912C812C10C00F2EF0E39F2EF02D0F2E10
:10037C00F7E78F2EF02D07C06894992494F80F2E70
:10038C00F2E18F2EF02D84E00E944C04682F6F77E1
:10039C0084E00E9426048AE00E944C04682F606866
:1003AC008AE00E94260460E081E00E942604412C31
:1003BC00512C32010CC0F701E40DF51D608189E070
:1003CC000E9426048FEF481A580A680A780A8C2F64
:1003DC0090E0A0E0B0E0481659066A067B0658F398
:1003EC006D2F81E00E942604DC3041F48DE00E94E8
:1003FC004C04682F60688DE00E9426040F2EF0EDEF
:10040C00CF2EF7E0DF2EE12CF12CF02D84E00E94B2
:10041C004C04C82FE1E0CE1AD108E108F10829F00C
:10042C0080FD03C0892D8C2389F38DE00E944C0440
:10043C00682F6F778DE00E942604CD28CE28CF2818
:10044C0009F460C086E00E944C048B7109F05CC01A
:10045C00C821C0FD02C0C1E001C0C2E0DC3009F01F
:10046C0054C08AE00E944C04D82F8CE00E944C04AB
:10047C00282F2770A9F08D2F90E00197880F991FD6
:10048C00880F991F880F991F820F911D092E000C40
:10049C00AA0BBB0BF80180839183A283B38311C099
:1004AC008D2F90E0880F991F880F991F880F991F27
:1004BC00092E000CAA0BBB0BF80180839183A2833D
:1004CC00B383D11101C0D1E0D13108F0D0E1C12CFE
:1004DC00D12C76010DC085010C0D1D1D89E00E94EB
:1004EC004C04F8018083FFEFCF1ADF0AEF0AFF0AF2
:1004FC008D2F90E0A0E0B0E0C816D906EA06FB0606
:10050C0050F303C0C3E001C0C3E08C2FDF91CF9147
:10051C001F910F91FF90EF90DF90CF90BF90AF9015
:0E052C009F908F907F906F905F904F900895FA
:10053A00EF92FF920F931F93CF93DF9300D000D0D7
:10054A00CDB7DEB77C0160E08DE00E94260483E926
:10055A00F701808380E281838E010F5F1F4F97012D
:10056A0042E0B7018CE00E949E01813091F407C0FD
:10057A00F701E90FF11D308123279F5F02C020E0B8
:10058A0090E09430A8F3F701E90FF11D9081291347
:10059A0083E00F900F900F900F90DF91CF911F91F2
:0805AA000F91FF90EF900895FE
:1005B200EF92FF920F931F93CF93DF9300D000D05F
:1005C200CDB7DEB7182F7B0167E08DE00E942604CD
:1005D200F70110838E010F5F1F4F970141E0B701B2
:1005E2008CE00E949E01813051F449815A816B81D5
:1005F2007C81403151056105710519F403C083E026
:1006020001C083E00F900F900F900F90DF91CF9178
:0A0612001F910F91FF90EF900895E3
:10061C00CF93DF93C82F60E087E20E94AC03DC2FFE
:10062C00D07F8D2F8C600E948B048D2F88600E9450
:10063C008B0480E1C89FE00111248C2F8C600E94F8
:10064C008B048C2F88600E948B048FEC97E00197B1
:10065C00F1F700C000000E94B404DF91CF9108951F
:10066C00CF93DF93C82F60E087E20E94AC03DC2FAE
:10067C00D07F8D2F8D600E948B048D2F89600E94FE
:10068C008B0480E1C89FE00111248C2F8D600E94A7
:10069C008B048C2F89600E948B048FEC97E0019760
:1006AC00F1F700C000000E94B404DF91CF910895CF
:1006BC00CF93DF93EC0164E071E082E50E94D902F4
:1006CC008130C1F484E091E00E949D02813069F098
:1006DC0082E013C02881E82FF0E0EC5FFE4F9081A0
:1006EC0029130AC021968F5F01C080E0843090F3FB
:1006FC0085E003C082E001C084E0DF91CF910895D2
:10070C000E94C0046DE88AE20E9426046EE38BE22C
:10071C000E9426046EE18CE20E94260460E08DE2C9
:10072C000E94260460E485E10E9426046DE381E1C9
:10073C000E94260484E10E944C04982F937029F4A3
:0C074C00682F636084E10E942604089579
:10075800CF93DF93C82FD62F84EA8093BC00809173
:10076800BC008823E4F78091B900887F883011F0B5
:100778000E94AE046C2F70E0660F771F6D2B60939C
:10078800BB0084E88093BC008091BC008823E4F718
:06079800DF91CF910895EE
:10079E00CF92DF92EF92CF936B01E82EC42F11C050
:1007AE00C150F6018491E7FC8081882319F00E94E4
:1007BE00360303C080E20E9436038FEFC81AD80AB0
:1007CE00E80AC111EDCFCF91EF90DF90CF90089551
:1007DE008FE295E70197F1F700C0000082E00E94DA
:1007EE000E0388E20E940E038CE00E940E0386E048
:1007FE000E940E0381E00E940E038FE097E20197A4
:08080E00F1F700C0000008959D
:10081600613051F028F0623061F0633079F008956C
:1008260080680E940E030895805C80680E940E0313
:1008360008958C5E80680E940E0308958C5A806825
:060846000E940E0308955C
:10084C00CF93C62F95B19B7F95B990E0880F991FD8
:10085C008E770E94BA048C2F0E94BA0485B18460F2
:06086C0085B9CF9108954B
:10087200FC0120E030E009C09091C00095FFFCCF60
:1008820081918093C6002F5F3F4F462F50E024177F
:06089200350794F3089500
:1008980095B19B7F95B990E0880F991F8E778068F6
:1008A8000E94BA0480E00E94BA0495B1946095B998
:0208B8000895A1
:1008BA0098B121E030E002C0220F331F8A95E2F797
:0808CA002095292328B90895A7
:1008D2001092C50083E38093C40086E08093C20037
:0808E20088E08093C100089535
:1008EA0098B121E030E002C0220F331F8A95E2F767
:0608FA00292B28B9089526
:10090000EC010E94CA040E94C904CE010E94CB04DB
:06091000CE010E94C704A5
:100916008093BB0084E88093BC008091BC00882350
:04092600E4F7089555
:10092A0081E00E940E038FE99FE00197F1F700C072
:04093A00000008951C
:10093E0088EF8AB987E08BB983E087B918B8089534
:0E094E0084B18C6284B98CB581658CBD08952E
:0C095C001092B90080E28093B80008956A
:0C09680084E98093BC000E94AE04089556
:0C0974008EBD0DB407FEFDCF8EB50895BA
:0A0980006FE081E00E942604089554
:04098A000C940000C9
:04098E000E9465005E
:020992000895C6
:020994000895C4
:020996000895C2
:04099800903E1D264A
:00000001FF
